01John                        Doe                           Kowal                         123 Main St                   
02000001000000001253USD                                                                                                 
02000002000000001483USD                                                                                                 
02000003000000001713USD                                                                                                 
02000004000000001943USD                                                                                                 
02000005000000002173USD                                                                                                 
02000006000000002403USD                                                                                                 
02000007000000002633USD                                                                                                 
02000008000000002863USD                                                                                                 
02000009000000003093USD                                                                                                 
02000010000000003323USD                                                                                                 
02000011000000003553USD                                                                                                 
02000012000000003783USD                                                                                                 
02000013000000004013USD                                                                                                 
02000014000000004243USD                                                                                                 
02000015000000004473USD                                                                                                 
02000016000000004703USD                                                                                                 
02000017000000004933USD                                                                                                 
02000018000000005163USD                                                                                                 
02000019000000005393USD                                                                                                 
02000020000000005623USD                                                                                                 
02000021000000005853USD                                                                                                 
02000022000000006083USD                                                                                                 
02000023000000006313USD                                                                                                 
02000024000000006543USD                                                                                                 
02000025000000006773USD                                                                                                 
02000026000000007003USD                                                                                                 
02000027000000007233USD                                                                                                 
02000028000000007463USD                                                                                                 
02000029000000007693USD                                                                                                 
02000030000000007923USD                                                                                                 
02000031000000008153USD                                                                                                 
02000032000000008383USD                                                                                                 
02000033000000008613USD                                                                                                 
02000034000000008843USD                                                                                                 
02000035000000009073USD                                                                                                 
02000036000000009303USD                                                                                                 
02000037000000009533USD                                                                                                 
02000038000000009763USD                                                                                                 
02000039000000009993USD                                                                                                 
02000040000000010223USD                                                                                                 
02000041000000010453USD                                                                                                 
02000042000000010683USD                                                                                                 
02000043000000010913USD                                                                                                 
02000044000000011143USD                                                                                                 
02000045000000011373USD                                                                                                 
02000046000000011603USD                                                                                                 
02000047000000011833USD                                                                                                 
02000048000000012063USD                                                                                                 
02000049000000012293USD                                                                                                 
02000050000000012523USD                                                                                                 
02000051000000012753USD                                                                                                 
02000052000000012983USD                                                                                                 
02000053000000013213USD                                                                                                 
02000054000000013443USD                                                                                                 
02000055000000013673USD                                                                                                 
02000056000000013903USD                                                                                                 
02000057000000014133USD                                                                                                 
02000058000000014363USD                                                                                                 
02000059000000014593USD                                                                                                 
02000060000000014823USD                                                                                                 
02000061000000015053USD                                                                                                 
02000062000000015283USD                                                                                                 
02000063000000015513USD                                                                                                 
02000064000000015743USD                                                                                                 
02000065000000015973USD                                                                                                 
02000066000000016203USD                                                                                                 
02000067000000016433USD                                                                                                 
02000068000000016663USD                                                                                                 
02000069000000016893USD                                                                                                 
02000070000000017123USD                                                                                                 
02000071000000017353USD                                                                                                 
02000072000000017583USD                                                                                                 
02000073000000017813USD                                                                                                 
02000074000000018043USD                                                                                                 
02000075000000018273USD                                                                                                 
02000076000000018503USD                                                                                                 
02000077000000018733USD                                                                                                 
02000078000000018963USD                                                                                                 
02000079000000019193USD                                                                                                 
02000080000000019423USD                                                                                                 
02000081000000019653USD                                                                                                 
02000082000000019883USD                                                                                                 
02000083000000020113USD                                                                                                 
02000084000000020343USD                                                                                                 
02000085000000020573USD                                                                                                 
02000086000000020803USD                                                                                                 
02000087000000021033USD                                                                                                 
02000088000000021263USD                                                                                                 
02000089000000021493USD                                                                                                 
02000090000000021723USD                                                                                                 
02000091000000021953USD                                                                                                 
02000092000000022183USD                                                                                                 
02000093000000022413USD                                                                                                 
02000094000000022643USD                                                                                                 
02000095000000022873USD                                                                                                 
02000096000000023103USD                                                                                                 
02000097000000023333USD                                                                                                 
02000098000000023563USD                                                                                                 
02000099000000023793USD                                                                                                 
02000100000000024023USD                                                                                                 
03000100000001263800                                                                                                    
