01John                        Doe                           Kowal                         123 Main St                   
02000001000000001253USD                                                                                                 
02000002000000001483USD                                                                                                 
02000003000000001713USD                                                                                                 
02000004000000001943USD                                                                                                 
02000005000000002173USD                                                                                                 
02000006000000002403USD                                                                                                 
02000007000000002633USD                                                                                                 
02000008000000002863USD                                                                                                 
02000009000000003093USD                                                                                                 
02000010000000003323USD                                                                                                 
02000011000000003553USD                                                                                                 
02000012000000003783USD                                                                                                 
02000013000000004013USD                                                                                                 
02000014000000004243USD                                                                                                 
02000015000000004473USD                                                                                                 
02000016000000004703USD                                                                                                 
02000017000000004933USD                                                                                                 
02000018000000005163USD                                                                                                 
02000019000000005393USD                                                                                                 
02000020000000005623USD                                                                                                 
02000021000000005853USD                                                                                                 
02000022000000006083USD                                                                                                 
02000023000000006313USD                                                                                                 
02000024000000006543USD                                                                                                 
02000025000000006773USD                                                                                                 
02000026000000007003USD                                                                                                 
02000027000000007233USD                                                                                                 
02000028000000007463USD                                                                                                 
02000029000000007693USD                                                                                                 
02000030000000007923USD                                                                                                 
02000031000000008153USD                                                                                                 
02000032000000008383USD                                                                                                 
02000033000000008613USD                                                                                                 
02000034000000008843USD                                                                                                 
02000035000000009073USD                                                                                                 
02000036000000009303USD                                                                                                 
02000037000000009533USD                                                                                                 
02000038000000009763USD                                                                                                 
02000039000000009993USD                                                                                                 
02000040000000010223USD                                                                                                 
02000041000000010453USD                                                                                                 
02000042000000010683USD                                                                                                 
02000043000000010913USD                                                                                                 
02000044000000011143USD                                                                                                 
02000045000000011373USD                                                                                                 
02000046000000011603USD                                                                                                 
02000047000000011833USD                                                                                                 
02000048000000012063USD                                                                                                 
02000049000000012293USD                                                                                                 
02000050000000012523USD                                                                                                 
02000051000000012753USD                                                                                                 
02000052000000012983USD                                                                                                 
02000053000000013213USD                                                                                                 
02000054000000013443USD                                                                                                 
02000055000000013673USD                                                                                                 
02000056000000013903USD                                                                                                 
02000057000000014133USD                                                                                                 
02000058000000014363USD                                                                                                 
02000059000000014593USD                                                                                                 
02000060000000014823USD                                                                                                 
02000061000000015053USD                                                                                                 
02000062000000015283USD                                                                                                 
02000063000000015513USD                                                                                                 
02000064000000015743USD                                                                                                 
02000065000000015973USD                                                                                                 
02000066000000016203USD                                                                                                 
02000067000000016433USD                                                                                                 
02000068000000016663USD                                                                                                 
02000069000000016893USD                                                                                                 
02000070000000017123USD                                                                                                 
02000071000000017353USD                                                                                                 
02000072000000017583USD                                                                                                 
02000073000000017813USD                                                                                                 
02000074000000018043USD                                                                                                 
02000075000000018273USD                                                                                                 
02000076000000018503USD                                                                                                 
02000077000000018733USD                                                                                                 
02000078000000018963USD                                                                                                 
02000079000000019193USD                                                                                                 
02000080000000019423USD                                                                                                 
02000081000000019653USD                                                                                                 
02000082000000019883USD                                                                                                 
02000083000000020113USD                                                                                                 
02000084000000020343USD                                                                                                 
02000085000000020573USD                                                                                                 
02000086000000020803USD                                                                                                 
02000087000000021033USD                                                                                                 
02000088000000021263USD                                                                                                 
02000089000000021493USD                                                                                                 
02000090000000021723USD                                                                                                 
02000091000000021953USD                                                                                                 
02000092000000022183USD                                                                                                 
02000093000000022413USD                                                                                                 
02000094000000022643USD                                                                                                 
02000095000000022873USD                                                                                                 
02000096000000023103USD                                                                                                 
02000097000000023333USD                                                                                                 
02000098000000023563USD                                                                                                 
02000099000000023793USD                                                                                                 
02000100000000024023USD                                                                                                 
02000101000000024253USD                                                                                                 
02000102000000024483USD                                                                                                 
02000103000000024713USD                                                                                                 
02000104000000024943USD                                                                                                 
02000105000000025173USD                                                                                                 
02000106000000025403USD                                                                                                 
02000107000000025633USD                                                                                                 
02000108000000025863USD                                                                                                 
02000109000000026093USD                                                                                                 
02000110000000026323USD                                                                                                 
02000111000000026553USD                                                                                                 
02000112000000026783USD                                                                                                 
02000113000000027013USD                                                                                                 
02000114000000027243USD                                                                                                 
02000115000000027473USD                                                                                                 
02000116000000027703USD                                                                                                 
02000117000000027933USD                                                                                                 
02000118000000028163USD                                                                                                 
02000119000000028393USD                                                                                                 
02000120000000028623USD                                                                                                 
02000121000000028853USD                                                                                                 
02000122000000029083USD                                                                                                 
02000123000000029313USD                                                                                                 
02000124000000029543USD                                                                                                 
02000125000000029773USD                                                                                                 
02000126000000030003USD                                                                                                 
02000127000000030233USD                                                                                                 
02000128000000030463USD                                                                                                 
02000129000000030693USD                                                                                                 
02000130000000030923USD                                                                                                 
02000131000000031153USD                                                                                                 
02000132000000031383USD                                                                                                 
02000133000000031613USD                                                                                                 
02000134000000031843USD                                                                                                 
02000135000000032073USD                                                                                                 
02000136000000032303USD                                                                                                 
02000137000000032533USD                                                                                                 
02000138000000032763USD                                                                                                 
02000139000000032993USD                                                                                                 
02000140000000033223USD                                                                                                 
02000141000000033453USD                                                                                                 
02000142000000033683USD                                                                                                 
02000143000000033913USD                                                                                                 
02000144000000034143USD                                                                                                 
02000145000000034373USD                                                                                                 
02000146000000034603USD                                                                                                 
02000147000000034833USD                                                                                                 
02000148000000035063USD                                                                                                 
02000149000000035293USD                                                                                                 
02000150000000035523USD                                                                                                 
02000151000000035753USD                                                                                                 
02000152000000035983USD                                                                                                 
02000153000000036213USD                                                                                                 
02000154000000036443USD                                                                                                 
02000155000000036673USD                                                                                                 
02000156000000036903USD                                                                                                 
02000157000000037133USD                                                                                                 
02000158000000037363USD                                                                                                 
02000159000000037593USD                                                                                                 
02000160000000037823USD                                                                                                 
02000161000000038053USD                                                                                                 
02000162000000038283USD                                                                                                 
02000163000000038513USD                                                                                                 
02000164000000038743USD                                                                                                 
02000165000000038973USD                                                                                                 
02000166000000039203USD                                                                                                 
02000167000000039433USD                                                                                                 
02000168000000039663USD                                                                                                 
02000169000000039893USD                                                                                                 
02000170000000040123USD                                                                                                 
02000171000000040353USD                                                                                                 
02000172000000040583USD                                                                                                 
02000173000000040813USD                                                                                                 
02000174000000041043USD                                                                                                 
02000175000000041273USD                                                                                                 
02000176000000041503USD                                                                                                 
02000177000000041733USD                                                                                                 
02000178000000041963USD                                                                                                 
02000179000000042193USD                                                                                                 
02000180000000042423USD                                                                                                 
02000181000000042653USD                                                                                                 
02000182000000042883USD                                                                                                 
02000183000000043113USD                                                                                                 
02000184000000043343USD                                                                                                 
02000185000000043573USD                                                                                                 
02000186000000043803USD                                                                                                 
02000187000000044033USD                                                                                                 
02000188000000044263USD                                                                                                 
02000189000000044493USD                                                                                                 
02000190000000044723USD                                                                                                 
02000191000000044953USD                                                                                                 
02000192000000045183USD                                                                                                 
02000193000000045413USD                                                                                                 
02000194000000045643USD                                                                                                 
02000195000000045873USD                                                                                                 
02000196000000046103USD                                                                                                 
02000197000000046333USD                                                                                                 
02000198000000046563USD                                                                                                 
02000199000000046793USD                                                                                                 
02000200000000047023USD                                                                                                 
02000201000000047253USD                                                                                                 
02000202000000047483USD                                                                                                 
02000203000000047713USD                                                                                                 
02000204000000047943USD                                                                                                 
02000205000000048173USD                                                                                                 
02000206000000048403USD                                                                                                 
02000207000000048633USD                                                                                                 
02000208000000048863USD                                                                                                 
02000209000000049093USD                                                                                                 
02000210000000049323USD                                                                                                 
02000211000000049553USD                                                                                                 
02000212000000049783USD                                                                                                 
02000213000000050013USD                                                                                                 
02000214000000050243USD                                                                                                 
02000215000000050473USD                                                                                                 
02000216000000050703USD                                                                                                 
02000217000000050933USD                                                                                                 
02000218000000051163USD                                                                                                 
02000219000000051393USD                                                                                                 
02000220000000051623USD                                                                                                 
02000221000000051853USD                                                                                                 
02000222000000052083USD                                                                                                 
02000223000000052313USD                                                                                                 
02000224000000052543USD                                                                                                 
02000225000000052773USD                                                                                                 
02000226000000053003USD                                                                                                 
02000227000000053233USD                                                                                                 
02000228000000053463USD                                                                                                 
02000229000000053693USD                                                                                                 
02000230000000053923USD                                                                                                 
02000231000000054153USD                                                                                                 
02000232000000054383USD                                                                                                 
02000233000000054613USD                                                                                                 
02000234000000054843USD                                                                                                 
02000235000000055073USD                                                                                                 
02000236000000055303USD                                                                                                 
02000237000000055533USD                                                                                                 
02000238000000055763USD                                                                                                 
02000239000000055993USD                                                                                                 
02000240000000056223USD                                                                                                 
02000241000000056453USD                                                                                                 
02000242000000056683USD                                                                                                 
02000243000000056913USD                                                                                                 
02000244000000057143USD                                                                                                 
02000245000000057373USD                                                                                                 
02000246000000057603USD                                                                                                 
02000247000000057833USD                                                                                                 
02000248000000058063USD                                                                                                 
02000249000000058293USD                                                                                                 
02000250000000058523USD                                                                                                 
02000251000000058753USD                                                                                                 
02000252000000058983USD                                                                                                 
02000253000000059213USD                                                                                                 
02000254000000059443USD                                                                                                 
02000255000000059673USD                                                                                                 
02000256000000059903USD                                                                                                 
02000257000000060133USD                                                                                                 
02000258000000060363USD                                                                                                 
02000259000000060593USD                                                                                                 
02000260000000060823USD                                                                                                 
02000261000000061053USD                                                                                                 
02000262000000061283USD                                                                                                 
02000263000000061513USD                                                                                                 
02000264000000061743USD                                                                                                 
02000265000000061973USD                                                                                                 
02000266000000062203USD                                                                                                 
02000267000000062433USD                                                                                                 
02000268000000062663USD                                                                                                 
02000269000000062893USD                                                                                                 
02000270000000063123USD                                                                                                 
02000271000000063353USD                                                                                                 
02000272000000063583USD                                                                                                 
02000273000000063813USD                                                                                                 
02000274000000064043USD                                                                                                 
02000275000000064273USD                                                                                                 
02000276000000064503USD                                                                                                 
02000277000000064733USD                                                                                                 
02000278000000064963USD                                                                                                 
02000279000000065193USD                                                                                                 
02000280000000065423USD                                                                                                 
02000281000000065653USD                                                                                                 
02000282000000065883USD                                                                                                 
02000283000000066113USD                                                                                                 
02000284000000066343USD                                                                                                 
02000285000000066573USD                                                                                                 
02000286000000066803USD                                                                                                 
02000287000000067033USD                                                                                                 
02000288000000067263USD                                                                                                 
02000289000000067493USD                                                                                                 
02000290000000067723USD                                                                                                 
02000291000000067953USD                                                                                                 
02000292000000068183USD                                                                                                 
02000293000000068413USD                                                                                                 
02000294000000068643USD                                                                                                 
02000295000000068873USD                                                                                                 
02000296000000069103USD                                                                                                 
02000297000000069333USD                                                                                                 
02000298000000069563USD                                                                                                 
02000299000000069793USD                                                                                                 
02000300000000070023USD                                                                                                 
02000301000000070253USD                                                                                                 
02000302000000070483USD                                                                                                 
02000303000000070713USD                                                                                                 
02000304000000070943USD                                                                                                 
02000305000000071173USD                                                                                                 
02000306000000071403USD                                                                                                 
02000307000000071633USD                                                                                                 
02000308000000071863USD                                                                                                 
02000309000000072093USD                                                                                                 
02000310000000072323USD                                                                                                 
02000311000000072553USD                                                                                                 
02000312000000072783USD                                                                                                 
02000313000000073013USD                                                                                                 
02000314000000073243USD                                                                                                 
02000315000000073473USD                                                                                                 
02000316000000073703USD                                                                                                 
02000317000000073933USD                                                                                                 
02000318000000074163USD                                                                                                 
02000319000000074393USD                                                                                                 
02000320000000074623USD                                                                                                 
02000321000000074853USD                                                                                                 
02000322000000075083USD                                                                                                 
02000323000000075313USD                                                                                                 
02000324000000075543USD                                                                                                 
02000325000000075773USD                                                                                                 
02000326000000076003USD                                                                                                 
02000327000000076233USD                                                                                                 
02000328000000076463USD                                                                                                 
02000329000000076693USD                                                                                                 
02000330000000076923USD                                                                                                 
02000331000000077153USD                                                                                                 
02000332000000077383USD                                                                                                 
02000333000000077613USD                                                                                                 
02000334000000077843USD                                                                                                 
02000335000000078073USD                                                                                                 
02000336000000078303USD                                                                                                 
02000337000000078533USD                                                                                                 
02000338000000078763USD                                                                                                 
02000339000000078993USD                                                                                                 
02000340000000079223USD                                                                                                 
02000341000000079453USD                                                                                                 
02000342000000079683USD                                                                                                 
02000343000000079913USD                                                                                                 
02000344000000080143USD                                                                                                 
02000345000000080373USD                                                                                                 
02000346000000080603USD                                                                                                 
02000347000000080833USD                                                                                                 
02000348000000081063USD                                                                                                 
02000349000000081293USD                                                                                                 
02000350000000081523USD                                                                                                 
02000351000000081753USD                                                                                                 
02000352000000081983USD                                                                                                 
02000353000000082213USD                                                                                                 
02000354000000082443USD                                                                                                 
02000355000000082673USD                                                                                                 
02000356000000082903USD                                                                                                 
02000357000000083133USD                                                                                                 
02000358000000083363USD                                                                                                 
02000359000000083593USD                                                                                                 
02000360000000083823USD                                                                                                 
02000361000000084053USD                                                                                                 
02000362000000084283USD                                                                                                 
02000363000000084513USD                                                                                                 
02000364000000084743USD                                                                                                 
02000365000000084973USD                                                                                                 
02000366000000085203USD                                                                                                 
02000367000000085433USD                                                                                                 
02000368000000085663USD                                                                                                 
02000369000000085893USD                                                                                                 
02000370000000086123USD                                                                                                 
02000371000000086353USD                                                                                                 
02000372000000086583USD                                                                                                 
02000373000000086813USD                                                                                                 
02000374000000087043USD                                                                                                 
02000375000000087273USD                                                                                                 
02000376000000087503USD                                                                                                 
02000377000000087733USD                                                                                                 
02000378000000087963USD                                                                                                 
02000379000000088193USD                                                                                                 
02000380000000088423USD                                                                                                 
02000381000000088653USD                                                                                                 
02000382000000088883USD                                                                                                 
02000383000000089113USD                                                                                                 
02000384000000089343USD                                                                                                 
02000385000000089573USD                                                                                                 
02000386000000089803USD                                                                                                 
02000387000000090033USD                                                                                                 
02000388000000090263USD                                                                                                 
02000389000000090493USD                                                                                                 
02000390000000090723USD                                                                                                 
02000391000000090953USD                                                                                                 
02000392000000091183USD                                                                                                 
02000393000000091413USD                                                                                                 
02000394000000091643USD                                                                                                 
02000395000000091873USD                                                                                                 
02000396000000092103USD                                                                                                 
02000397000000092333USD                                                                                                 
02000398000000092563USD                                                                                                 
02000399000000092793USD                                                                                                 
02000400000000093023USD                                                                                                 
02000401000000093253USD                                                                                                 
02000402000000093483USD                                                                                                 
02000403000000093713USD                                                                                                 
02000404000000093943USD                                                                                                 
02000405000000094173USD                                                                                                 
02000406000000094403USD                                                                                                 
02000407000000094633USD                                                                                                 
02000408000000094863USD                                                                                                 
02000409000000095093USD                                                                                                 
02000410000000095323USD                                                                                                 
02000411000000095553USD                                                                                                 
02000412000000095783USD                                                                                                 
02000413000000096013USD                                                                                                 
02000414000000096243USD                                                                                                 
02000415000000096473USD                                                                                                 
02000416000000096703USD                                                                                                 
02000417000000096933USD                                                                                                 
02000418000000097163USD                                                                                                 
02000419000000097393USD                                                                                                 
02000420000000097623USD                                                                                                 
02000421000000097853USD                                                                                                 
02000422000000098083USD                                                                                                 
02000423000000098313USD                                                                                                 
02000424000000098543USD                                                                                                 
02000425000000098773USD                                                                                                 
02000426000000099003USD                                                                                                 
02000427000000099233USD                                                                                                 
02000428000000099463USD                                                                                                 
02000429000000099693USD                                                                                                 
02000430000000099923USD                                                                                                 
02000431000000100153USD                                                                                                 
02000432000000100383USD                                                                                                 
02000433000000100613USD                                                                                                 
02000434000000100843USD                                                                                                 
02000435000000101073USD                                                                                                 
02000436000000101303USD                                                                                                 
02000437000000101533USD                                                                                                 
02000438000000101763USD                                                                                                 
02000439000000101993USD                                                                                                 
02000440000000102223USD                                                                                                 
02000441000000102453USD                                                                                                 
02000442000000102683USD                                                                                                 
02000443000000102913USD                                                                                                 
02000444000000103143USD                                                                                                 
02000445000000103373USD                                                                                                 
02000446000000103603USD                                                                                                 
02000447000000103833USD                                                                                                 
02000448000000104063USD                                                                                                 
02000449000000104293USD                                                                                                 
02000450000000104523USD                                                                                                 
02000451000000104753USD                                                                                                 
02000452000000104983USD                                                                                                 
02000453000000105213USD                                                                                                 
02000454000000105443USD                                                                                                 
02000455000000105673USD                                                                                                 
02000456000000105903USD                                                                                                 
02000457000000106133USD                                                                                                 
02000458000000106363USD                                                                                                 
02000459000000106593USD                                                                                                 
02000460000000106823USD                                                                                                 
02000461000000107053USD                                                                                                 
02000462000000107283USD                                                                                                 
02000463000000107513USD                                                                                                 
02000464000000107743USD                                                                                                 
02000465000000107973USD                                                                                                 
02000466000000108203USD                                                                                                 
02000467000000108433USD                                                                                                 
02000468000000108663USD                                                                                                 
02000469000000108893USD                                                                                                 
02000470000000109123USD                                                                                                 
02000471000000109353USD                                                                                                 
02000472000000109583USD                                                                                                 
02000473000000109813USD                                                                                                 
02000474000000110043USD                                                                                                 
02000475000000110273USD                                                                                                 
02000476000000110503USD                                                                                                 
02000477000000110733USD                                                                                                 
02000478000000110963USD                                                                                                 
02000479000000111193USD                                                                                                 
02000480000000111423USD                                                                                                 
02000481000000111653USD                                                                                                 
02000482000000111883USD                                                                                                 
02000483000000112113USD                                                                                                 
02000484000000112343USD                                                                                                 
02000485000000112573USD                                                                                                 
02000486000000112803USD                                                                                                 
02000487000000113033USD                                                                                                 
02000488000000113263USD                                                                                                 
02000489000000113493USD                                                                                                 
02000490000000113723USD                                                                                                 
02000491000000113953USD                                                                                                 
02000492000000114183USD                                                                                                 
02000493000000114413USD                                                                                                 
02000494000000114643USD                                                                                                 
02000495000000114873USD                                                                                                 
02000496000000115103USD                                                                                                 
02000497000000115333USD                                                                                                 
02000498000000115563USD                                                                                                 
02000499000000115793USD                                                                                                 
02000500000000116023USD                                                                                                 
02000501000000116253USD                                                                                                 
02000502000000116483USD                                                                                                 
02000503000000116713USD                                                                                                 
02000504000000116943USD                                                                                                 
02000505000000117173USD                                                                                                 
02000506000000117403USD                                                                                                 
02000507000000117633USD                                                                                                 
02000508000000117863USD                                                                                                 
02000509000000118093USD                                                                                                 
02000510000000118323USD                                                                                                 
02000511000000118553USD                                                                                                 
02000512000000118783USD                                                                                                 
02000513000000119013USD                                                                                                 
02000514000000119243USD                                                                                                 
02000515000000119473USD                                                                                                 
02000516000000119703USD                                                                                                 
02000517000000119933USD                                                                                                 
02000518000000120163USD                                                                                                 
02000519000000120393USD                                                                                                 
02000520000000120623USD                                                                                                 
02000521000000120853USD                                                                                                 
02000522000000121083USD                                                                                                 
02000523000000121313USD                                                                                                 
02000524000000121543USD                                                                                                 
02000525000000121773USD                                                                                                 
02000526000000122003USD                                                                                                 
02000527000000122233USD                                                                                                 
02000528000000122463USD                                                                                                 
02000529000000122693USD                                                                                                 
02000530000000122923USD                                                                                                 
02000531000000123153USD                                                                                                 
02000532000000123383USD                                                                                                 
02000533000000123613USD                                                                                                 
02000534000000123843USD                                                                                                 
02000535000000124073USD                                                                                                 
02000536000000124303USD                                                                                                 
02000537000000124533USD                                                                                                 
02000538000000124763USD                                                                                                 
02000539000000124993USD                                                                                                 
02000540000000125223USD                                                                                                 
02000541000000125453USD                                                                                                 
02000542000000125683USD                                                                                                 
02000543000000125913USD                                                                                                 
02000544000000126143USD                                                                                                 
02000545000000126373USD                                                                                                 
02000546000000126603USD                                                                                                 
02000547000000126833USD                                                                                                 
02000548000000127063USD                                                                                                 
02000549000000127293USD                                                                                                 
02000550000000127523USD                                                                                                 
02000551000000127753USD                                                                                                 
02000552000000127983USD                                                                                                 
02000553000000128213USD                                                                                                 
02000554000000128443USD                                                                                                 
02000555000000128673USD                                                                                                 
02000556000000128903USD                                                                                                 
02000557000000129133USD                                                                                                 
02000558000000129363USD                                                                                                 
02000559000000129593USD                                                                                                 
02000560000000129823USD                                                                                                 
02000561000000130053USD                                                                                                 
02000562000000130283USD                                                                                                 
02000563000000130513USD                                                                                                 
02000564000000130743USD                                                                                                 
02000565000000130973USD                                                                                                 
02000566000000131203USD                                                                                                 
02000567000000131433USD                                                                                                 
02000568000000131663USD                                                                                                 
02000569000000131893USD                                                                                                 
02000570000000132123USD                                                                                                 
02000571000000132353USD                                                                                                 
02000572000000132583USD                                                                                                 
02000573000000132813USD                                                                                                 
02000574000000133043USD                                                                                                 
02000575000000133273USD                                                                                                 
02000576000000133503USD                                                                                                 
02000577000000133733USD                                                                                                 
02000578000000133963USD                                                                                                 
02000579000000134193USD                                                                                                 
02000580000000134423USD                                                                                                 
02000581000000134653USD                                                                                                 
02000582000000134883USD                                                                                                 
02000583000000135113USD                                                                                                 
02000584000000135343USD                                                                                                 
02000585000000135573USD                                                                                                 
02000586000000135803USD                                                                                                 
02000587000000136033USD                                                                                                 
02000588000000136263USD                                                                                                 
02000589000000136493USD                                                                                                 
02000590000000136723USD                                                                                                 
02000591000000136953USD                                                                                                 
02000592000000137183USD                                                                                                 
02000593000000137413USD                                                                                                 
02000594000000137643USD                                                                                                 
02000595000000137873USD                                                                                                 
02000596000000138103USD                                                                                                 
02000597000000138333USD                                                                                                 
02000598000000138563USD                                                                                                 
02000599000000138793USD                                                                                                 
02000600000000139023USD                                                                                                 
02000601000000139253USD                                                                                                 
02000602000000139483USD                                                                                                 
02000603000000139713USD                                                                                                 
02000604000000139943USD                                                                                                 
02000605000000140173USD                                                                                                 
02000606000000140403USD                                                                                                 
02000607000000140633USD                                                                                                 
02000608000000140863USD                                                                                                 
02000609000000141093USD                                                                                                 
02000610000000141323USD                                                                                                 
02000611000000141553USD                                                                                                 
02000612000000141783USD                                                                                                 
02000613000000142013USD                                                                                                 
02000614000000142243USD                                                                                                 
02000615000000142473USD                                                                                                 
02000616000000142703USD                                                                                                 
02000617000000142933USD                                                                                                 
02000618000000143163USD                                                                                                 
02000619000000143393USD                                                                                                 
02000620000000143623USD                                                                                                 
02000621000000143853USD                                                                                                 
02000622000000144083USD                                                                                                 
02000623000000144313USD                                                                                                 
02000624000000144543USD                                                                                                 
02000625000000144773USD                                                                                                 
02000626000000145003USD                                                                                                 
02000627000000145233USD                                                                                                 
02000628000000145463USD                                                                                                 
02000629000000145693USD                                                                                                 
02000630000000145923USD                                                                                                 
02000631000000146153USD                                                                                                 
02000632000000146383USD                                                                                                 
02000633000000146613USD                                                                                                 
02000634000000146843USD                                                                                                 
02000635000000147073USD                                                                                                 
02000636000000147303USD                                                                                                 
02000637000000147533USD                                                                                                 
02000638000000147763USD                                                                                                 
02000639000000147993USD                                                                                                 
02000640000000148223USD                                                                                                 
02000641000000148453USD                                                                                                 
02000642000000148683USD                                                                                                 
02000643000000148913USD                                                                                                 
02000644000000149143USD                                                                                                 
02000645000000149373USD                                                                                                 
02000646000000149603USD                                                                                                 
02000647000000149833USD                                                                                                 
02000648000000150063USD                                                                                                 
02000649000000150293USD                                                                                                 
02000650000000150523USD                                                                                                 
02000651000000150753USD                                                                                                 
02000652000000150983USD                                                                                                 
02000653000000151213USD                                                                                                 
02000654000000151443USD                                                                                                 
02000655000000151673USD                                                                                                 
02000656000000151903USD                                                                                                 
02000657000000152133USD                                                                                                 
02000658000000152363USD                                                                                                 
02000659000000152593USD                                                                                                 
02000660000000152823USD                                                                                                 
02000661000000153053USD                                                                                                 
02000662000000153283USD                                                                                                 
02000663000000153513USD                                                                                                 
02000664000000153743USD                                                                                                 
02000665000000153973USD                                                                                                 
02000666000000154203USD                                                                                                 
02000667000000154433USD                                                                                                 
02000668000000154663USD                                                                                                 
02000669000000154893USD                                                                                                 
02000670000000155123USD                                                                                                 
02000671000000155353USD                                                                                                 
02000672000000155583USD                                                                                                 
02000673000000155813USD                                                                                                 
02000674000000156043USD                                                                                                 
02000675000000156273USD                                                                                                 
02000676000000156503USD                                                                                                 
02000677000000156733USD                                                                                                 
02000678000000156963USD                                                                                                 
02000679000000157193USD                                                                                                 
02000680000000157423USD                                                                                                 
02000681000000157653USD                                                                                                 
02000682000000157883USD                                                                                                 
02000683000000158113USD                                                                                                 
02000684000000158343USD                                                                                                 
02000685000000158573USD                                                                                                 
02000686000000158803USD                                                                                                 
02000687000000159033USD                                                                                                 
02000688000000159263USD                                                                                                 
02000689000000159493USD                                                                                                 
02000690000000159723USD                                                                                                 
02000691000000159953USD                                                                                                 
02000692000000160183USD                                                                                                 
02000693000000160413USD                                                                                                 
02000694000000160643USD                                                                                                 
02000695000000160873USD                                                                                                 
02000696000000161103USD                                                                                                 
02000697000000161333USD                                                                                                 
02000698000000161563USD                                                                                                 
02000699000000161793USD                                                                                                 
02000700000000162023USD                                                                                                 
02000701000000162253USD                                                                                                 
02000702000000162483USD                                                                                                 
02000703000000162713USD                                                                                                 
02000704000000162943USD                                                                                                 
02000705000000163173USD                                                                                                 
02000706000000163403USD                                                                                                 
02000707000000163633USD                                                                                                 
02000708000000163863USD                                                                                                 
02000709000000164093USD                                                                                                 
02000710000000164323USD                                                                                                 
02000711000000164553USD                                                                                                 
02000712000000164783USD                                                                                                 
02000713000000165013USD                                                                                                 
02000714000000165243USD                                                                                                 
02000715000000165473USD                                                                                                 
02000716000000165703USD                                                                                                 
02000717000000165933USD                                                                                                 
02000718000000166163USD                                                                                                 
02000719000000166393USD                                                                                                 
02000720000000166623USD                                                                                                 
02000721000000166853USD                                                                                                 
02000722000000167083USD                                                                                                 
02000723000000167313USD                                                                                                 
02000724000000167543USD                                                                                                 
02000725000000167773USD                                                                                                 
02000726000000168003USD                                                                                                 
02000727000000168233USD                                                                                                 
02000728000000168463USD                                                                                                 
02000729000000168693USD                                                                                                 
02000730000000168923USD                                                                                                 
02000731000000169153USD                                                                                                 
02000732000000169383USD                                                                                                 
02000733000000169613USD                                                                                                 
02000734000000169843USD                                                                                                 
02000735000000170073USD                                                                                                 
02000736000000170303USD                                                                                                 
02000737000000170533USD                                                                                                 
02000738000000170763USD                                                                                                 
02000739000000170993USD                                                                                                 
02000740000000171223USD                                                                                                 
02000741000000171453USD                                                                                                 
02000742000000171683USD                                                                                                 
02000743000000171913USD                                                                                                 
02000744000000172143USD                                                                                                 
02000745000000172373USD                                                                                                 
02000746000000172603USD                                                                                                 
02000747000000172833USD                                                                                                 
02000748000000173063USD                                                                                                 
02000749000000173293USD                                                                                                 
02000750000000173523USD                                                                                                 
02000751000000173753USD                                                                                                 
02000752000000173983USD                                                                                                 
02000753000000174213USD                                                                                                 
02000754000000174443USD                                                                                                 
02000755000000174673USD                                                                                                 
02000756000000174903USD                                                                                                 
02000757000000175133USD                                                                                                 
02000758000000175363USD                                                                                                 
02000759000000175593USD                                                                                                 
02000760000000175823USD                                                                                                 
02000761000000176053USD                                                                                                 
02000762000000176283USD                                                                                                 
02000763000000176513USD                                                                                                 
02000764000000176743USD                                                                                                 
02000765000000176973USD                                                                                                 
02000766000000177203USD                                                                                                 
02000767000000177433USD                                                                                                 
02000768000000177663USD                                                                                                 
02000769000000177893USD                                                                                                 
02000770000000178123USD                                                                                                 
02000771000000178353USD                                                                                                 
02000772000000178583USD                                                                                                 
02000773000000178813USD                                                                                                 
02000774000000179043USD                                                                                                 
02000775000000179273USD                                                                                                 
02000776000000179503USD                                                                                                 
02000777000000179733USD                                                                                                 
02000778000000179963USD                                                                                                 
02000779000000180193USD                                                                                                 
02000780000000180423USD                                                                                                 
02000781000000180653USD                                                                                                 
02000782000000180883USD                                                                                                 
02000783000000181113USD                                                                                                 
02000784000000181343USD                                                                                                 
02000785000000181573USD                                                                                                 
02000786000000181803USD                                                                                                 
02000787000000182033USD                                                                                                 
02000788000000182263USD                                                                                                 
02000789000000182493USD                                                                                                 
02000790000000182723USD                                                                                                 
02000791000000182953USD                                                                                                 
02000792000000183183USD                                                                                                 
02000793000000183413USD                                                                                                 
02000794000000183643USD                                                                                                 
02000795000000183873USD                                                                                                 
02000796000000184103USD                                                                                                 
02000797000000184333USD                                                                                                 
02000798000000184563USD                                                                                                 
02000799000000184793USD                                                                                                 
02000800000000185023USD                                                                                                 
02000801000000185253USD                                                                                                 
02000802000000185483USD                                                                                                 
02000803000000185713USD                                                                                                 
02000804000000185943USD                                                                                                 
02000805000000186173USD                                                                                                 
02000806000000186403USD                                                                                                 
02000807000000186633USD                                                                                                 
02000808000000186863USD                                                                                                 
02000809000000187093USD                                                                                                 
02000810000000187323USD                                                                                                 
02000811000000187553USD                                                                                                 
02000812000000187783USD                                                                                                 
02000813000000188013USD                                                                                                 
02000814000000188243USD                                                                                                 
02000815000000188473USD                                                                                                 
02000816000000188703USD                                                                                                 
02000817000000188933USD                                                                                                 
02000818000000189163USD                                                                                                 
02000819000000189393USD                                                                                                 
02000820000000189623USD                                                                                                 
02000821000000189853USD                                                                                                 
02000822000000190083USD                                                                                                 
02000823000000190313USD                                                                                                 
02000824000000190543USD                                                                                                 
02000825000000190773USD                                                                                                 
